:1009B70031303030206D73206C6F67203A000D0A9C
:0109C700002F
:1007180041002700410029004100280041002C0029
:1007280042002A00004200330000C10144002D00AD
:1007380000000042001B000042001D000042001F94
:100748000000420021000042002300004200250072
:0107580000A0
:0B075A00900018EBF0A3EAF0A3E9F018
:10076500E4FFFE900018E0FBA3E0FAA3E0F98F8216
:100775008E83120026601B900018E0A3E0A3E00F13
:10078500EFAC0670010E14F5828C83120026F599E4
:0207950080D111
:01079700223F
:0403C400AB07AA06D3
:1003C800900014E4F0A3740FF0900014E0FEA3E092
:1003D8002404F58274003EF583E4F0EBAE02781F46
:1003E800CEC313CE13D8F9FF900016EEF0A3EFF0AA
:1003F8004E600DEBF4FFEAF4FEEF2401FBE43EFA55
:10040800900015E024FFF0900014E034FFF07C0029
:100418007D0AAF03AE02120065ED2430FFE0FCA3B5
:10042800E02404F58274003CF583EFF07C007D0A3B
:10043800AF03AE02120065AA06AB07EB4A70C19083
:100448000016E07002A3E0601E900015E024FFF0A3
:10045800900014E034FFF0E0FEA3E02404F5827479
:10046800003EF583742DF0900014E0FEA3E0240410
:0A047800F974003EFA7B0112075AE6
:010482002257
:0F09C800E4FDFCAC06AD0790002AEEF0A3EFF0C3
:0109D70022FD
:10098500A2AF9200C2AF75C7AA75C755E4F591A28B
:0A0995000092AF53B1DF43B22022FD
:1008BB00A2AF9200C2AF75C7AA75C755E4F591A256
:1008CB000092AF53B37F53B47FA2AF9200C2AF7508
:1008DB00C7AA75C755F591A20092AF53ACFE43ADB5
:0208EB000122E8
:1002040090002DE0FCA3E0FDA3E0FEA3E05420FF5A
:10021400E4FEFDFCEF60047F0180027F00EF7003C9
:100224000202F090002DE0FCA3E0FDA3E0FEA3E0B9
:1002340054DFFFEEEDEC90002D1201C7B2B0900038
:100244001BE475F0011200D0FEC3E5F094FAEE94BD
:1002540000405BE490001BF0A3F090002DE0FCA3B1
:10026400E0FDA3E0FEA3E05402FFE4FEFDFCEF602A
:10027400047F0180027F00EF601B90002DE0FCA34F
:10028400E0FDA3E0FEA3E054FDFFEEEDEC90002DB5
:100294001201C7801990002DE0FCA3E0FDA3E0FE4D
:1002A400A3E04402FFEEEDEC90002D1201C7900094
:1002B4001DE475F0011200D0FEC3E5F09464EE94E1
:1002C400004029E490001DF0A3F07BFF7A0979B780
:1002D40012075A90001FE475F0011200D0AFF0FE2F
:0C02E4001203C47BFF7A0979C512075A87
:0102F00022EB
:1007D40090002DE0FCA3E0FDA3E0FEA3E05410FF95
:1007E400E4FEFDFCEF60047F0180027F00EF6019EE
:1007F40090002DE0FCA3E0FDA3E0FEA3E054EFFF96
:0A080400EEEDEC90002D1201C7226A
:10080E0090002DE0FCA3E0FDA3E0FEA3E05408FF62
:10081E00E4FEFDFCEF60047F0180027F00EF6019B3
:10082E0090002DE0FCA3E0FDA3E0FEA3E054F7FF53
:0A083E00EEEDEC90002D1201C72230
:1008480090002DE0FCA3E0FDA3E0FEA3E05404FF2C
:10085800E4FEFDFCEF60047F0180027F00EF601979
:1008680090002DE0FCA3E0FDA3E0FEA3E054FBFF15
:0A087800EEEDEC90002D1201C722F6
:1007980012084812080E1207D412020490002DE025
:1007A800FCA3E0FDA3E0FEA3E05402FFE4FEFDFC91
:1007B800EF60047F0180027F00EF60087F327E00D7
:0C07C8001209C8227F557E001209C822C9
:10066300E4FDFC308536C28590002AE0FEA3E0FF5E
:10067300C374649FFFE49EFE7D0912005390003310
:10068300EEF0A3EFF0900033E0FEA3E0FFC3E49F9E
:10069300FDE49EFCF58DAF05EFF58B22D28590002E
:1006A3002AE0FEA3E0FF7C007D0912005390003393
:1006B300EEF0A3EFF0900033E0FEA3E0FFC3E49F6E
:0B06C300FDE49EFCF58DAF05EFF58B0C
:0106CE002209
:03001B0002088256
:10088200C0E0C0F0C083C082C0D075D000C000C03C
:1008920004C005C006C007C091C28E120663C28F93
:1008A200D28ED091D007D006D005D004D000D0D0BF
:0908B200D082D083D0F0D0E032F6
:10096A00E4900004F0A3F053890F438910538EEFEB
:0A097A00F58DF58BD2ABD2AFD28E13
:010984002250
:1002F100900000E4F0A37405F0A3E4F0A37419F0F6
:100301007B327A0090002DE0FCA3E0FDA3E0FEA388
:10031100E04404FFEEEDEC90002D1201C7900021A6
:10032100E475F0011200BAFED3900001E095F0905F
:100331000000E09E502090002DE0FCA3E0FDA3E032
:10034100FEA3E04408FFEEEDEC90002D1201C7E49E
:10035100900021F0A3F0900023E475F0011200BA9F
:10036100FED3900003E095F0900002E09E502090B3
:10037100002DE0FCA3E0FDA3E0FEA3E04410FFEEAE
:10038100EDEC90002D1201C7E4900023F0A3F09052
:100391000025E475F0011200BAFCC3E5F09BEC9A6C
:1003A100402090002DE0FCA3E0FDA3E0FEA3E0448B
:1003B10020FFEEEDEC90002D1201C7E4900025F036
:0203C100A3F0A7
:0103C3002217
:03000B000206CF1B
:1006CF00C0E0C0F0C083C082C0D075D000C000C0F1
:1006DF0002C003C004C005C006C007C09190002728
:1006EF00E0F58C900029E0F58AC28D1202F1D091CD
:1006FF00D007D006D005D004D003D002D000D0D080
:09070F00D082D083D0F0D0E0329A
:1008ED00E4900004F0A3F07D707CFE5389F0438901
:1008FD0001538EF7EC900027F07470900029F09062
:10090D000027E0F58C900029E0F58AD2A9D2AFD26C
:01091D008C4D
:01091E0022B6
:0300230002091FB0
:10091F00C0E0C083C082C09130980AD201900031EC
:10092F00E599F0C298309905200202C299D091D072
:06093F0082D083D0E032FB
:100483009000041201D30001C200A2AF9200C2AFD8
:1004930075C7AA75C755E4F591A20092AF53B1BFD2
:1004A30053B2BF75985043878053C4F8A2AF9200EC
:1004B300C2AF75C7AA75C755F591A20092AF43C4E1
:1004C30020900004E0F8A3E0F9A3E0FAA3E0FB7FA7
:1004D300607EE37D167C00120122C3E49FFFE49E4D
:1004E300FE74019DFDE49CFC78081201B48FC69054
:1004F3000004E0F8A3E0F9A3E0FAA3E0FB7F607E49
:10050300E37D167C00120122C3E49FFFE49EFE7488
:10051300019DFDE49CFCEFE48FC5A2AF9200C2AF46
:1005230075C7AA75C755F591A20092AF43C408D207
:07053300ACD2AFD299D20255
:01053A00229E
:1005D5009000047406F0E4F59175A638A2AF920078
:1005E500C2AF75C7AA75C755439F01A20092AFF563
:1005F500A775AF04A2AF9200C2AF75C7AA75C7555C
:1006050043A401A20092AF85AE0805A6A2AF920051
:10061500C2AF75C7AA75C75543A401A20092AF859D
:10062500AE09A2AF9200C2AF75C7AA75C755539F51
:10063500FEA20092AF75C7AA75C75585088475C710
:10064500AA75C755850985A2AF9200C2AF75C7AA1D
:0D06550075C755539FFEA20092AF5387EF6B
:010662002275
:100945001205D5A2AF9200C2AF75C7AA75C755E407
:10095500F591A20092AFF5B1F5B2F5B3F5B4F5ACEA
:05096500F5ADD2AF2248
:10099F001209451204831208BB1208ED12096A12DC
:0809AF00098512079880FB2264
:0300000002053BBB
:10053B00787FE4F6D8FD9000007FFF7E03E4F0A304
:0A054B00DFFCDEFA75812002059046
:1005550002099FE493A3F8E493A34003F68001F214
:1005650008DFF48029E493A3F85407240CC8C333A7
:10057500C4540F4420C8834004F456800146F6DF76
:10058500E4800B0102040810204080900718E47EE7
:10059500019360BCA3FF543F30E509541FFEE4936B
:1005A500A360010ECF54C025E060A840B8E493A332
:1005B500FAE493A3F8E493A3C8C582C8CAC583CA5D
:1005C500F0A3C8C582C8CAC583CADFE9DEE780BE15
:01075900009F
:10002600BB010CE58229F582E5833AF583E022508F
:1000360006E92582F8E622BBFE06E92582F8E222D9
:0D004600E58229F582E5833AF583E49322F3
:10005300EF8DF0A4A8F0CF8CF0A428CE8DF0A42EC1
:02006300FE227B
:10006500BC000BBE0029EF8DF084FFADF022E4CC7F
:10007500F875F008EF2FFFEE33FEEC33FCEE9DEC48
:10008500984005FCEE9DFE0FD5F0E9E4CEFD22ED8E
:10009500F8F5F0EE8420D21CFEADF075F008EF2FD8
:1000A500FFED33FD4007985006D5F0F222C398FDC9
:0500B5000FD5F0EA2266
:1000BA00C5F0F8A3E028F0C5F0F8E58215827002D1
:0600CA001583E038F0226E
:1000D000A3F8E0C5F025F0F0E582158270021583E3
:0600E000E0C838F0E82240
:1000E60075F008758200EF2FFFEE33FECD33CDCCD1
:1000F60033CCC58233C5829BED9AEC99E582984054
:100106000CF582EE9BFEED9AFDEC99FC0FD5F0D630
:10011600E4CEFBE4CDFAE4CCF9A88222B800C1B95A
:100126000059BA002DEC8BF084CFCECDFCE5F0CB98
:10013600F97818EF2FFFEE33FEED33FDEC33FCEBD1
:1001460033FB10D703994004EB99FB0FD8E5E4F98C
:10015600FA227818EF2FFFEE33FEED33FDEC33FC79
:10016600C933C910D7059BE99A4007EC9BFCE99A6D
:10017600F90FD8E0E4C9FAE4CCFB2275F010EF2FB2
:10018600FFEE33FEED33FDCC33CCC833C810D707B2
:100196009BEC9AE899400AED9BFDEC9AFCE899F8ED
:0E01A6000FD5F0DAE4CDFBE4CCFAE4C8F92280
:1001B400E8600FECC313FCED13FDEE13FEEF13FF29
:0301C400D8F1224D
:0C01C700ECF0A3EDF0A3EEF0A3EFF022AB
:1001D300A8828583F0D083D0821201EA1201EA1249
:1001E30001EA1201EAE473E493A3C583C5F0C5836E
:1001F300C8C582C8F0A3C583C5F0C583C8C582C876
:0102030022D8
:00000001FF
